:1000000012C02CC02BC02AC029C028C027C026C0BF
:1000100025C024C023C0B6C021C020C01FC01EC040
:100020001DC01CC01BC011241FBECFE5D4E0DEBF25
:10003000CDBF10E0A0E6B0E0E6ECF1E002C0059034
:100040000D92A036B107D9F710E0A0E6B0E001C0EC
:100050001D92A036B107E1F702D0B3C0D1CF8AB16B
:1000600088618AB980B5866880BD8FEB89B910BC7C
:100070008FEF87BB84B38C6084BB579A78949CE0E5
:1000800083B3880F880F892785BBFACFDF93CF937F
:1000900000D000D0CDB7DEB79B01AC011DC01982E6
:1000A0001A821B821C820BC089819A81AB81BC8120
:1000B0000196A11DB11D89839A83AB83BC8389817D
:1000C0009A81AB81BC81833D9105A105B10561F7A2
:1000D0002150304040405040211531054105510527
:1000E000F1F60F900F900F900F90CF91DF91089540
:1000F000EF92FF920F931F93DF93CF9300D000D026
:10010000CDB7DEB77B018C0128B381E090E002C05F
:10011000880F991F4A95E2F7382F282B28BB1EC05D
:1001200019821A821B821C820BC089819A81AB8141
:10013000BC810196A11DB11D89839A83AB83BC83C9
:1001400089819A81AB81BC81833D9105A105B1056F
:1001500061F70894E108F10801091109E114F104BB
:1001600001051105E9F688B33095382338BB0F90A7
:100170000F900F900F90CF91DF911F910F91FF90F3
:10018000EF9008951F920F920FB60F9211244F9384
:100190005F936F937F938F939F938CB18CB941E062
:1001A00050E062E370E080E090E0A2DF9F918F91E9
:1001B0007F916F915F914F910F900FBE0F901F90A5
:0601C0001895F894FFCF32
:00000001FF
