:10000000EFC00CC408C107C106C105C104C103C1CA
:1000100002C101C100C1FFC0FEC0FDC0FCC0FBC0E9
:10002000FAC0F9C0F8C00403090442035300700089
:100030006100630065006D0061006E0020005300E8
:10004000700069006600660020006800740074009B
:1000500070003A002F002F00730079006D006C00D3
:1000600069006E006B002E0064006B002A035300D1
:1000700070006900660066002700730020004300DE
:100080003600340020004B006500790062006F00EC
:1000900061007200640006033400320012010101A5
:1000A000000000084242BEBA9801010203010902A1
:1000B0002200010100403209040000010301010097
:1000C000092101010001223F000705810308000A00
:1000D000792022717375771E281A151C0C137A2942
:1000E0007D04070A0D0F8466812170727476786F23
:1000F0007E1D060510376B2C7F16090B0E837B685F
:1001000080081718128582147C671B191136386C09
:100110006A000000000000001F00340023002400DB
:100120002400348825002600260027002700278881
:100130002E022E8A2D002D883502358A4A804D8068
:100140002A004C88250225022E002E8851805280DC
:100150004F8050803A803B803C803D803E803F8095
:10016000408041802302230033022F8833003088EF
:100170001F8A1F8A01020408102040800501090619
:10018000A101050719E029E715002501750195086A
:10019000810295017508810395057501050819010E
:1001A00029059102950175039103950675081500BF
:1001B00025650507190029658100C01020084546FE
:1001C0004765666700202B2D2E30313233343536AB
:1001D00037383968006364696E6F707375785800DA
:1001E00011241FBECFE5D4E0DEBFCDBF10E0A0E6F6
:1001F000B0E0E2E9F3E102C005900D92AE36B1073E
:10020000D9F710E0AEE6B0E001C01D92AF3AB107F9
:10021000E1F7CAD1BCC8F4CE85B7836085BF8BB780
:1002200080648BBF83EC8093850008950F931F93A8
:10023000CF93DF936091950016160CF0E2C06350E7
:1002400080919200CCE0D0E0C81BD109C756DF4FA7
:10025000809191008D3209F0B7C08AE580936100EA
:10026000683009F0C4C09881892F807609F099C060
:10027000109283008981882381F49F7119F481E0B1
:10028000809383001092840083E890E09093940020
:100290008093930090E822E090C0853021F48A8119
:1002A0008093960006C1863009F05EC08B81813054
:1002B00049F48CE990E0909394008093930090EC43
:1002C00022E17BC0823049F48EEA90E09093940062
:1002D0008093930090EC22E270C0833071F58A81A4
:1002E000882349F486E290E09093940080939300F1
:1002F00090EC24E062C0813049F48AE290E090936F
:1003000094008093930090EC22E457C0823049F42B
:100310008CE690E0909394008093930090EC2AE216
:100320004CC0833009F0C7C086E990E090939400F8
:100330008093930090EC26E040C0813249F480EC39
:1003400090E0909394008093930090EC29E035C066
:10035000823209F0B0C08CE791E0909394008093D2
:10036000930090EC2FE329C0883019F488E990E0DD
:100370000AC0893021F48A81809398009AC08A301B
:1003800049F483E890E0909394008093930090E880
:1003900021E013C08B3009F08CC083EC8093850082
:1003A00088C0CE01B3D0282F8F3F31F4888187FDDC
:1003B0002E81822F90E01FC090E88F818823D1F496
:1003C0008E818217C0F016C080916E0087FD0FC02D
:1003D000CE01D7D08F3F21F48EE18093610004C01D
:1003E000882311F090E004C090E08FEF04C090E803
:1003F00080E001C0822F90936E0080936000109285
:1004000095008091610084FF49C0809160008F3F1A
:1004100009F444C0182F893008F018E0811B80933C
:10042000600080916E0080FD02C00BE401C003EC0F
:100430008F5F80936E00209193003091940086FD31
:1004400005C0D901912FEBE7F0E011C0ABE7B0E0B8
:1004500080E090E006C0F901E80FF91FE491ED9308
:1004600001961817C1F705C08D918193915099237A
:10047000D9F7F901E10FF11DF0939400E093930097
:10048000612F8BE790E046D3183019F08FEF8093FF
:10049000600000937A001C5F109361009AE080B3C3
:1004A0008C7061F49150D9F71092960010929000E0
:1004B00005C090E801C090EC20E07FCFDF91CF91A4
:1004C0001F910F9108951F93DC01162F80916200F8
:1004D00084FF0AC08091850098E889278093850071
:1004E000912FE6E8F0E007C08AE580936200F8CF3C
:1004F0008D91819391509923D9F7612F86E890E0EF
:1005000009D31C5F109362001F910895FC0181E7DD
:1005100090E0909394008093930080818076803265
:1005200071F58181813011F488E00895893049F4B2
:1005300086819781019719F581E080936F008FEF95
:100540000895823019F489E790E013C08A3029F4C5
:1005500083818093790080E00895833031F4838132
:10056000882369F410926D0008958B3041F48DE674
:1005700090E0909394008093930081E0089580E050
:100580000895FC0180916F00882351F0613041F49F
:1005900080818093700081FF02C0919A01C0919880
:1005A00010926F0081E008954F925F927F928F9238
:1005B0009F92AF92BF92CF92DF92EF92FF920F93F2
:1005C0001F93DF93CF9300D0CDB7DEB72FE088E144
:1005D00090E00FB6F894A89581BD0FBE21BD8FE3C2
:1005E00088BB17BA8FEF85BB14BA8AEF82BB87E04E
:1005F00081BB8AE38A95F1F782E081BB85E083BF06
:100600000BDE7894FF24EE2488248A9410EA712E5D
:10061000B1E7CB2EB0E0DB2EA8E0BA2EAA24A3943B
:100620009924939401C0E12EA89500DE40916C00BE
:1006300003E610E0D80120E030E081B3877C81BB85
:1006400082B3886382BB263040F4F901EC58FE4F38
:10065000E491E7BBE095E8BB0DC017BA88BAF90191
:10066000EB54FE4FE49181B38E2B81BB82B3E095B6
:10067000E823E2BB872D8A95F1F783B390B3907C92
:100680008F73982B8C9198134AE09D932F5F3F4F67
:100690002930310591F640936C00413011F090E023
:1006A00097C0F6018B2D11928A95E9F7809167002A
:1006B000682F70E06074707080916A00482F50E07D
:1006C0004270507090E0A1E020E030E0F801B0818D
:1006D000BF3F09F45FC019829A8258C08A818B2378
:1006E00009F04EC08981F901E80FF11DE053FF4F79
:1006F00084918F3670F1E82FEF5661157105B9F0CE
:100700004115510511F48C3790F04E2E5524440CB0
:10071000551C440C551CC201885E9E4FFC018491FF
:10072000E9E1F1E04E0E5F1EF20194911FC04E2EE2
:100730005524440C551C440C551CC201865E9E4F2A
:10074000FC018491EBE1F1E04E0E5F1EF201949109
:100750000DC0863658F0E82FF0E0E25FFE4FE491DE
:1007600080917100E82BE09371000AC0882341F06A
:10077000AF5FA83028F4EA2FF0E0EF58FF4F8083F6
:1007800089818F5F89838A81880F8A8389818830F4
:1007900008F4A4CF0F5F1F4F285F3F4FF0E00C36E7
:1007A0001F0709F093CF97FF05C0809171008F7DDF
:1007B0008093710093FF05C0809171008D7F8093BD
:1007C0007100977780917100982B9093710091E060
:1007D00080916C00882319F0815080936C0008B6DA
:1007E00000FE0EC0A8BE10917900112349F084E0EC
:1007F0008E1518F0FF24F39407C01E2D155001C06C
:100800001E2DF92A09F40FCF8091620084FF0BCFCF
:1008100068E081E790E057DEFF2405CFCF93CFB7A4
:10082000CF93829BFECF829B09C0829B07C0829B95
:1008300005C0829B03C0829B01C09EC0DF93C09114
:100840009200DD27C756DF4F829B02C0DF91EBCFBE
:100850002F930F931F9300B32FEF02FB20F94F93B9
:100860003F9310B34FEF012702FB21F93BE031C06A
:100870004E7F012F10B3216028C0102F4D7F2260C2
:10088000000000B329C04B7F2460012F000010B38B
:100890002BC010B3477F28602AC04F7E00B3206171
:1008A0002CC04F7D10B320622FC04F7B00B320645B
:1008B00032C0422700B349934FEF0000102712FBCC
:1008C00020F910B31C70A9F1297F91F2012702FBD6
:1008D00021F900B3237F89F23150F0F1102712FB88
:1008E00022F910B3277E79F2012702FB23F92F7C2E
:1008F00081F200B3102712FB24F92F7971F200C0A6
:1009000010B3012702FB25F92F7359F200C000B381
:10091000102712FB26F9223040F200C010B3012745
:1009200002FB27F9243028F64F77206810B3000027
:10093000F9CF3B503195333010E41ABFB8F0C31BE8
:10094000D0400881033C41F10B3431F11981412F32
:100950001F7720919000121731F4093691F10D3272
:1009600079F0013E69F02227209397003F914F9143
:100970001F910F912F91DF91CF91CFBFCF911895FC
:10098000009397003F914F911F910F912F91DF910D
:10099000CAB7C6FD46CFF0CF00919700002331F3D0
:1009A000109195001123A1F53430A2F130939500F8
:1009B00000939100109192003BE0311B3093920024
:1009C00029C00091950001301CF50AE547FD09C0DA
:1009D0003091610034FD20C000936100CAE7D0E08F
:1009E0001FC03091620034FD17C000936200C5E85B
:1009F000D0E016C0052710E002BB1FC0052722C0AB
:100A0000052727C005272CC0052710E002BB33C0EF
:100A10004AE503C042ED01C0432FC4E1D0E032E01B
:100A200011B31C60929A02B311BB5F935CE020E8A3
:100A300020FF052702BB279517951C3FD8F620FFFE
:100A40000527279502BB17951C3FC0F620FF0527F9
:100A50002795179502BB1C3F98F620FF0527279581
:100A600017951C3F02BB70F600C0499120FF052777
:100A700002BB279517951C3F38F620FF05272795C1
:100A800002BB17951C3F38F520FF052727951795C2
:100A900002BB1C3F10F520FF0527279517951C3F2B
:100AA00002BBE8F4242F3A9519F6037F5F9102BB4D
:100AB00000C010919600C651D04011F010939000E4
:100AC00010E41ABF046011B3137F402F437F02BBB1
:100AD00011BB42BB4BCF0527D3CF0527D8CF052766
:100AE000DDCFA82FB92F8FEF9FEF41E050EA615083
:100AF00070F02D9138E0722F78279695879526957E
:100B000070FF02C0842795273A95A9F7F0CF80950A
:100B100090950895E6DF8D939D9308954F925F928F
:100B20006F927F928F929F92BF92CF92DF92EF92BD
:100B3000FF920F931F93DF93CF93CDB7DEB72B9721
:100B40000FB6F894DEBF0FBECDBF4C013B016A016A
:100B5000FC0117821682838181FD08C06FEF7FEF51
:100B600009C142E050E0C40ED51E04C02E01089415
:100B7000411C511CF4010381F30103FD859103FF26
:100B800081913F01882309F4F2C0853259F403FDB5
:100B9000659103FF61913F01653219F0162FBB2467
:100BA0001DC085E2B40190E02CC0112309F4DFC020
:100BB000612F70E085EC91E0B7D2892B49F41332B4
:100BC00019F4F0E1BF2A04C01C3669F440E8B42AE5
:100BD000F30103FD159103FF11913F01B7FEE5CF2E
:100BE000112309F4C4C0612F70E08EEB91E09CD218
:100BF000892B49F044E050E0C40ED51EB4018FE3C8
:100C000090E0DFD2B7CF133629F0133779F01335E0
:100C1000E9F40AC086010E5F1F4FB401F60180811E
:100C20009181CFD26801A6CFF1E0BF2AF601008101
:100C3000118103C0B40190E0C4D2F801B0FC8591E9
:100C4000B0FE81918F018823A9F78BCF143611F064
:100C5000193651F5B7FE08C0F601E080F180028137
:100C6000138144E050E00AC0F601808191817C014B
:100C70000027F7FC0095102F42E050E0C40ED51E6F
:100C80005FEEB52217FF0AC010950095F094E0942E
:100C9000E11CF11C011D111D80E4B82A2AE030E09E
:100CA000A201C801B70138C01037B1F0113730F4D4
:100CB0001835C9F01F3609F05AC006C0153739F08B
:100CC000183709F054C00AC028E030E010C09FEE89
:100CD000B9222AE030E00BC0E0E1BE2AF4E2BF2AEC
:100CE00020E130E004C044E0B42A20E132E0B7FE65
:100CF00008C0F601608171818281938144E050E0F7
:100D000008C0F60180819181BC0180E090E042E062
:100D100050E0C40ED51EA2019AD2F82EF4180B2D65
:100D200010E0B6FE04C0B4018DE290E04AD204FFA8
:100D300013C0FE01EF0DF11D8081803369F0B40115
:100D400080E390E03ED202FF07C000721070B40151
:100D5000C801885A9F4F35D2FA94F201EF0DF11D68
:100D6000B401808190E02DD2FF20B1F703CFF401D0
:100D700066817781CB012B960FB6F894DEBF0FBE4C
:100D8000CDBFCF91DF911F910F91FF90EF90DF903A
:100D9000CF90BF909F908F907F906F905F904F907B
:100DA0000895FC0120FD08C023FD05C022FF02C0FC
:100DB00073836283518340830895EF92FF920F9370
:100DC0001F9344FF02C033E011C046FF02C034E06D
:100DD0000DC0DB01FC01AA0FBB1FEE1FFF1F10940B
:100DE000D1F76A0F7B1F8E1F9F1F31E0660F771FA1
:100DF000881F991F3150D1F77B018C01E20EF11C45
:100E0000011D111DA8019701B701CA011F910F9182
:100E1000FF90EF9008950F931F93CF93DF938C0172
:100E2000C8018DD1EC0197FD06C0A6D2892BC1F770
:100E3000B801CE01F2D1CE01DF91CF911F910F9178
:100E40000895A0E0B0E0E6E2F7E067C2EC01C62E4C
:100E50005A01122F74D1AC018B3219F08D3249F442
:100E60001068CA9409F466C0CE0169D1AC0197FD3F
:100E700061C06DEFD62ED1228D2D8073F1F44033F9
:100E8000E1F4CA9409F442C0CE0159D1AC0197FDF6
:100E90003DC082E0D82A483711F0483551F480E44B
:100EA000D82ACA9499F1CE014AD1AC0199232CF4E5
:100EB0002DC0D6FC02C080E1D82AEE24FF24870191
:100EC000242F2053283080F0D4FC09C02A3060F051
:100ED000D6FE05C02F7D822F8151863020F0BE01C5
:100EE000CA019BD110C027504D2DC801B70165DF45
:100EF0007B018C0182E0D82ACA9459F0CE011FD11F
:100F0000AC0197FFDDCFD1FC04C014C0EE24FF2458
:100F10008701D7FE08C010950095F094E094E11C7D
:100F2000F11C011D111D2D2DB801A701C50139DFCF
:100F300081E001C080E0CDB7DEB7EAE00AC2A0E000
:100F4000B0E0E4EAF7E0E5C15C016B013A01FC01C5
:100F5000178216828824D0C0812F90E00DD2892B71
:100F600019F0C50158DFC8C0153249F4F601F3FC89
:100F70006591F3FE61916F01653259F415E2C50187
:100F8000DED097FDC5C0181709F4B6C0B50145D12C
:100F9000C4C06A3219F0162F00E006C0F3FC1591A8
:100FA000F3FE11916F0101E099240EC00260692DDA
:100FB00070E080E090E040E200DF962EF601F3FC66
:100FC0001591F3FE11916F01212F20532A3070F3F8
:100FD00001FD03C099249A9403C0992009F49DC08F
:100FE000183621F01C3699F4F6010BC0F601F3FC1B
:100FF0006591F3FE6191683619F06F01162F07C0F5
:1010000008600460F3FC1591F3FE11916F01112348
:1010100009F483C0612F70E085ED91E085D0892BC4
:1010200009F47BC0802F00FF03C0EE24FF2407C01B
:10103000F301E080F18022E030E0620E731E1E3684
:1010400049F4F5014681578160E070E0202FC70127
:10105000A8DE52C0133689F481FD02C0992493940E
:10106000C5016DD097FD54C0E114F10419F0F701EA
:1010700081937F019A94A1F73DC0C501CCDE97FD15
:1010800047C01F3641F1103728F4143611F11936D4
:1010900021F524C0133719F01537F9F41AC0C5012A
:1010A0004ED0EC0197FD0FC067D1892B21F0B5011F
:1010B000CE01B3D008C0E114F10419F0F701C193D7
:1010C0007F019A9461F7E114F104A1F0F701108215
:1010D00011C0006203C0006101C00064202FA7019D
:1010E000692DC501AEDE882329F4F5018381807363
:1010F00079F413C000FF8394F501F380F601F3FC4B
:101100001591F3FE11916F01112309F025CF05C050
:10111000882019F42FEF3FEF02C0282D30E0C901DD
:10112000CDB7DEB7EEE011C1FC010590061621F047
:101130000020D9F7C00108953197CF010895CF93CA
:10114000DF93EC014B8140FF1AC046FF0AC04F7B82
:101150004B838E819F8101969F838E838A81282F66
:101160002BC042FF13C0E881F9818081282F3327EB
:1011700027FD30952115310529F440624B832FEF6F
:101180003FEF1BC03196F983E88311C0EA85FB85E8
:10119000CE0109959C0197FF0AC09B812F5F3F4FAD
:1011A00011F080E201C080E1892B8B83E8CF8E8132
:1011B0009F8101969F838E8330E0C901DF91CF919B
:1011C00008950F931F93CF93DF938C01EB018B81D5
:1011D00081FF1BC082FF0DC02E813F818C819D81CC
:1011E0002817390764F4E881F9810193F983E883CA
:1011F00006C0E885F985802F0995892B31F48E8109
:101200009F8101969F838E8302C00FEF1FEFC8015D
:10121000DF91CF911F910F9108959C01FB01838174
:1012200080FF11C086FD0FC09FEF2F3F390759F097
:10123000228380648F7D8383868197810197978342
:10124000868330E002C02FEF3FEFC9010895FA0115
:10125000AA27283051F1203181F1E8946F936E7FF5
:101260006E5F7F4F8F4F9F4FAF4FB1E03ED0B4E0E6
:101270003CD0670F781F891F9A1FA11D680F791F27
:101280008A1F911DA11D6A0F711D811D911DA11D38
:1012900020D009F468943F912AE0269F1124301948
:1012A000305D3193DEF6CF010895462F4770405DE3
:1012B0004193B3E00FD0C9F7F6CF462F4F70405D92
:1012C0004A3318F0495D31FD4052419302D0A9F7ED
:1012D000EACFB4E0A6959795879577956795BA95E7
:1012E000C9F700976105710508959B01AC010A2EAD
:1012F00006945795479537952795BA95C9F7620F84
:10130000731F841F951FA01D08952F923F924F9227
:101310005F926F927F928F929F92AF92BF92CF9285
:10132000DF92EF92FF920F931F93CF93DF93CDB78E
:10133000DEB7CA1BDB0B0FB6F894DEBF0FBECDBF06
:1013400009942A88398848885F846E847D848C84D7
:101350009B84AA84B984C884DF80EE80FD800C81E0
:101360001B81AA81B981CE0FD11D0FB6F894DEBFC3
:101370000FBECDBFED010895911106C0803219F066
:1013800089508550D0F70895992788270895F894B3
:02139000FFCF8D
:0E139200FF5A5AFFFFFFFFFFFFFFFFFF05019D
:00000001FF
