:020000020000FC
:100000000AC0189518951895189518950EC1189549
:100010001895189518950FED0DBF0FEF07BB08BB8E
:1000200001BB02BB02E009BF789438D006D023D0D0
:100030009ED0C09A0895C09808950F9300E308BB1E
:100040006FD07CD07BD000E308BB6AD077D000E3D0
:1000500008BB66D073D000E224D008E222D004E1CD
:1000600020D00CE01ED006E01CD001E01AD000E841
:1000700018D00F91089500E226D004E524D005E6BB
:1000800022D00DE620D000E71ED00AE31CD005ECFC
:1000900008D00FED18D003E416D008950FEF07BB7A
:1000A00008950F931F9320D0102F107F106018BB5E
:1000B00037D0102F1F701295106018BB31D01F91D0
:1000C0000F9136D008950F931F930ED0102F107FED
:1000D000126018BB25D0102F1F701295126018BB2C
:1000E0001FD01F910F9108950F9300E008BB0FE000
:1000F00007BBC29AC39A0000000000000000000085
:100100000000000006B3C3980000000000000000DB
:1001100007D00078003069F70FEF07BB0F91089503
:10012000C39A0F930AE00A95F1F70F91C3980895C7
:100130000F9300E80A95F1F70F9108951F931FEFB1
:10014000F7DF1A95E9F71F9108950F930191BBDF2F
:100150001A95E1F70F9108950F920F93C895002D0E
:10016000B2DF31961A95D1F70F910F90089502ECF6
:1001700098DF5FDF4ED05CEC2AD054E428D037D033
:100180005523E9F346D05CEC22D05EEB20D02FD093
:10019000752F2DD0652F3DD02AD0052F28D0052FC3
:1001A00026D0052F24D0052F22D0052F20D0052FB3
:1001B0000BE2662321F071950DE27F5F739583DF7B
:1001C00077953DD0022F7FDF012F7DDFD0CF88E0F4
:1001D0008E9A96984FEF2DD0579508F4969A42EE46
:1001E00028D0969A4FEF25D08A9591F7089588E008
:1001F00050E08E9A96984FEF1CD08E984BEF19D006
:10020000889486990894579547EE13D08A9589F774
:1002100008958E9A969846E00CD0969A8E9843ED63
:1002200008D0869B46E002BF04C0689400E003BF8C
:10023000189542BFE89402E003BFFEF7089510E36B
:1002400020E330E3743620F47A3040F4170F089539
:10025000745633957436E0F77A3000F47A5023956B
:080260007A30E0F7170F089552
:00000001FF
