:10000000A1C039C2BAC0B9C0B8C0B7C0B6C0B5C0C7
:10001000B4C0B3C0B2C06BC4B0C0AFC0AEC0ADC09E
:10002000ACC0ABC0AAC00403090412034D006100B8
:10003000630062006500740068002E001403530022
:1000400075006E00200054007900700065003600D5
:100050001201100100000008C016DF0500010102B6
:10006000000109022200010100800A0904000001C8
:1000700003010100092101010001223F0007058160
:100080000308006405010906A101050719E029E735
:1000900015002501750195088102950175088103F8
:1000A000950575010508190129059102950175034A
:1000B0009103950675081500256505071900296542
:1000C0008100C000780079003A3B433C443D453E06
:1000D000E63F00404142E25248464750767A514F4F
:1000E000291E1F20212223242526272D2E352A498B
:1000F0007F54556677637C4A2B141A0815171C1811
:100100000C12132F304C655F606156747D4D00E01A
:10011000041607090A0B0D0E0F33343128585C5DA5
:100120005E627E4B7B53E11D1B06190511103637AD
:1001300038E500595A5B0000007539E32CE74E00A2
:100140005700000011241FBECFE5D4E0DEBFCDBFB5
:1001500011E0A0E6B0E0E8EBF6E102C005900D92F8
:10016000AC36B107D9F711E0ACE6B1E001C01D92A1
:10017000A13BB107E1F7E8D39DCA42CF85B78260C2
:1001800085BF8BB780648BBF8BE4809387018AE542
:100190008093860108951F93FC01162F809186019C
:1001A00084FF07C08091870198E8892780938701A1
:1001B00003C08AE580938601812FA8E8B1E0919180
:1001C0009D9381501816DCF388E891E0612F4FD1A0
:1001D0001C5F109386011F9108951F93CF93DF93A7
:1001E00060919701635067FDBFC080919401CCE09E
:1001F000D0E0C81BD109C556DE4F809193018D32E6
:1002000009F0A0C0683009F0ADC083EC80937B0199
:100210008AE58093600010926C018881807631F0CD
:10022000CE0165D28F3F09F47CC082C09A811092C2
:1002300084018981882331F41092850124E831E01A
:1002400082E06AC0853019F49093980162C08630CC
:1002500009F04AC08B81813019F480E590E01BC021
:10026000823041F482E690E090939601809395016C
:1002700082E236C08330F9F48A81882341F486E231
:1002800090E0909396018093950184E029C081309D
:1002900041F48AE290E0909396018093950182E187
:1002A0001FC08230E1F48CE390E09093960180933C
:1002B000950184E115C0813241F484E790E0909388
:1002C00096018093950189E00BC0823241F484E865
:1002D00090E090939601809395018FE301C080E0B8
:1002E00090E490936C0124C0883019F42AE931E03D
:1002F00009C0893019F490939A010BC08A3021F417
:1003000024E831E081E008C08B3019F48BE480935D
:10031000870124E831E080E0309396012093950135
:1003200007C0988197FD8E8190E890936C0106C07C
:100330009F81992319F49E81981708F0982F909324
:10034000610010C080916C0187FF0CC0CE01B4D158
:100350008F3F21F48EE18093600004C0882311F068
:1003600010926100109297018091600084FF5CC040
:10037000809161008F3F09F457C0182F893008F031
:1003800018E0811B8093610080917B0198E88927A8
:1003900080937B011123B9F190916C0197FF08C004
:1003A0008CE791E0612F2CD3182F8930B8F52BC042
:1003B0002091950130919601812F815096FF10C0B8
:1003C00090E0BC0163587E4FA901CCE7D1E0FA016F
:1003D000A491A9934F5F5F4FC617D707C1F70CC011
:1003E00090E0AC0143585E4FD901ECE7F1E06D912C
:1003F0006193E417F507D9F70196820F931F909345
:100400009601809395018CE791E0612F30D01C5FBD
:100410001C3041F08FEF8093610004C08FEF809318
:1004200061001EE11093600084E190B3947131F497
:100430008150D9F71092980110929201DF91CF91DB
:100440001F910895A82FB92F80E090E041E050EA75
:1004500060956F5F58F42D9138EF822797958795B7
:1004600010F0842795273F5FC8F3F3CF0895EADFA4
:100470008D939D930895CF93CFB7CF93DF93C3957B
:10048000849BE9F7849B0BC0849B09C0849B07C0B5
:10049000849B05C0849B03C0849B01C08BC06F9369
:1004A000C0919401DD27C556DE4F2F9365E5849BEF
:1004B00003C02F916F91E6CF0F931F934F9320E0CE
:1004C00040E15F9300B3047104FB27F93F9350E0D0
:1004D0003BE039C0147140642F77012F53501EC088
:1004E000406810B314712F7753501FC0406400B39D
:1004F0002F770471D1F15350000023C0406210B334
:100500002F77147191F15350000025C0047110270A
:10051000515012F45D5F0000115027952C3F10B32D
:10052000C8F614710127015027952C3FC8F64227C1
:10053000499300B3047110274F73115027952C3F36
:10054000A8F64695469510B3147179F0012701502D
:1005500027952C3F98F66B5A60F3315000B3B0F6F4
:1005600000C010E41ABF002719C03B503195C31BCF
:10057000D04010E41ABF0881033C09F10B34F9F0B4
:10058000209192011981110F1213EDCF4A81441F5E
:10059000093651F10D3211F0013E29F7009399010E
:1005A0003F915F914F911F910F912F916F91CAB71A
:1005B000C6FD65CFDF91CF91CFBFCF911895209128
:1005C0009901222369F310919701112391F5343099
:1005D00092F13093970120939301109194013BE0A5
:1005E000311B3093940127C00091970101300CF525
:1005F0000AE54F7049F43091600034FD1DC000934E
:100600006000CBE7D1E01CC03091860134FD14C0FE
:1006100000938601C7E8D1E013C0052710E000C0B1
:10062000000002BB1AC0052710E0221F1DC010E009
:1006300021C04AE502C032ED432FC4E1D0E032E0F0
:1006400011B31461949A02B311BB54E120E865E33D
:1006500020FF052702BB279517951C3FF0F66695EE
:10066000B8F7B1F720FF052702BB279517951C3F68
:10067000D0F62795179517FF052700001C3F02BBF2
:10068000B0F629913A9519F70B7E10919801110F48
:10069000C651D04002BB11F01093920110E41ABF72
:1006A000006111B31B7E402F4B7E54E05A95F1F749
:1006B00002BB11BB42BB74CF20916D01222399F084
:1006C000613089F4FC019081892F817091FD8860EF
:1006D00092FD846093FD82605D9BFECF9EE09CB99D
:1006E0005D9BFECF8CB910926D0181E00895FC01F5
:1006F00080E791E0909396018093950180818076C8
:10070000803279F58181813011F488E00895893053
:1007100051F4868197818130910519F581E08093AC
:100720006D018FEF0895823019F48AE791E013C0CC
:100730008A3029F4838180937A0180E008958330A0
:1007400031F48381882369F41092620008958B301C
:1007500041F482E690E0909396018093950181E0C8
:10076000089580E008959F92AF92BF92CF92DF925A
:10077000EF92FF920F931F9328B3E1E0F0E002C0E5
:10078000EE0FFF1F4A95E2F79E2E2E2B28BBDED4DC
:100790005B016C0120E030E04AE755E410D37B01B7
:1007A0008C017F2D912F20E030E040E85FE352D4B0
:1007B00088231CF481E090E026C06E2D7F2D802FD1
:1007C000912F20E03FEF4FE757E4EED31816A4F443
:1007D000C601B50120E030E040E251E4F0D22AD178
:1007E00020E931E005C0C9010197F1F7615070407F
:1007F00061157105C1F709C06E2D7F2D802F912FD6
:1008000019D1DC01CB010197F1F788B390949822BC
:1008100098BA1F910F91FF90EF90DF90CF90BF900B
:10082000AF909F900895E82FF0E0EF77F070ED53D0
:10083000FF4F9491992311F480E00895282F207898
:10084000892F805E883018F5892F90E040917001E3
:10085000222379F0805E904021E030E002C0220F38
:10086000331F8A95E2F7922F90959423909370010D
:1008700034C09C01205E304081E090E002C0880FCF
:10088000991F2A95E2F7842B8093700126C02223BA
:10089000B1F0E2E7F1E020E030E0A9014E5F5F4F08
:1008A0008081891729F4FA01E059FE4F108215C0A2
:1008B0002F5F3F4F31962630310579F716C0E2E7BA
:1008C000F1E020E030E0A9014E5F5F4F8081882396
:1008D00031F4FA01E059FE4F908381E008952F5FD3
:1008E0003F4F31962630310571F781E008951F9210
:1008F0000F920FB60F9211242F933F934F935F9354
:100900006F937F938F939F93AF93BF93EF93FF93D7
:100910008CB18CB988DF882331F081E090E090932E
:100920006F0180936E01FF91EF91BF91AF919F9105
:100930008F917F916F915F914F913F912F910F9088
:100940000FBE0F901F9018950F931F93DF93CF93B7
:100950000F92CDB7DEB78FEF87BB85E083BF2EE068
:1009600088E190E00FB6F894A89581BD0FBE21BD37
:100970008AB188618AB980B5866880BD80E489B90A
:1009800083E080BD579A88EE93E020E931E0F901D9
:100990003197F1F70197D9F7F1DB8C9A80E020EAE3
:1009A0003FE004C0A895F9013197F1F78150D1F7E4
:1009B0008C98789401E001C0812FA89589830DDC83
:1009C00090916E01898108B600FE0AC008BF10919F
:1009D0007A01112329F0853030F0182F155001C00D
:1009E000182F992349F38091860184FFE5CF109257
:1009F0006F0110926E0180E791E068E0CCDBDCCF04
:100A00001F9320917901162F261708F4122F609159
:100A1000780170E0412F50E03DD680917801810F40
:100A20008093780180917901811B80937901812FD6
:100A30001F910895EF92FF920F931F937B018C01FA
:100A400020E030E040E05FE4DAD288237CF0C801A7
:100A5000B70120E030E040E05FE45FD126D39B01A6
:100A6000AC01205030404040504805C0C801B7019B
:100A70001CD39B01AC01B901CA011F910F91FF90DA
:100A8000EF900895A0E0B0E0E7E4F5E0CEC5FC010A
:100A90002B01EA018081823008F43AC1DB019C918C
:100AA000923008F434C1843069F4943009F030C1D4
:100AB000918111968C911197981709F429C1E3E659
:100AC000F0E026C1943009F422C19230A9F48230BA
:100AD00009F01EC19F0188E0D9010D909D01DA0146
:100AE0000D92AD018150C1F7D20111968C911197F1
:100AF00091818923898309C1823009F408C18281E7
:100B00009381DB0112964D915C911397E480F580FF
:100B1000068117811496AD90BD90CD90DC9017970B
:100B20009C01241B350BB90137FF04C066277727CA
:100B3000621B730B603271050CF062C01216130653
:100B40006CF535014601062E04C09694879477947F
:100B500067940A94D2F721E030E040E050E004C00E
:100B6000220F331F441F551F6A95D2F72150304082
:100B7000404050402A213B214C215D212115310567
:100B80004105510521F021E030E040E050E05901FD
:100B90006A01A628B728C828D9283DC021153105E3
:100BA000D1F1860F971F37014801062E04C0969495
:100BB0008794779467940A94D2F721E030E040E07C
:100BC00050E004C0220F331F441F551F6A95D2F70F
:100BD00021503040404050402E213F21402351239E
:100BE000211531054105510521F021E030E040E0BB
:100BF00050E079018A01E628F728082919290BC055
:100C0000481759072CF0CA01EE24FF24870103C0BE
:100C1000AA24BB2465012181F2013181231709F443
:100C200047C0222349F0A60195012E193F09400B28
:100C3000510B79018A0104C0EA18FB080C091D094F
:100C400017FD0CC019829B838A83EC82FD820E8380
:100C50001F838C819D81AE81BF8117C021E02983D4
:100C60009B838A8310950095F094E094E11CF11C1D
:100C7000011D111DEACF880F991FAA1FBB1F2A81D2
:100C80003B81215030403B832A839C01AD012150A0
:100C90003040404050402F3F6FEF36076FEF460720
:100CA0006FE3560740F38C839D83AE83BF830BC0F5
:100CB00029839B838A83EA0CFB1C0C1D1D1DEC827F
:100CC000FD820E831F8383E088832C813D814E81CA
:100CD0005F8157FF1AC0C901AA2797FDA095BA2FB7
:100CE00081709070A070B070569547953795279594
:100CF000822B932BA42BB52B8C839D83AE83BF8338
:100D00008A819B8101969B838A83FE0101C0F20147
:100D1000CF01CDB7DEB7E0E1A4C4A0E2B0E0E2E9E4
:100D2000F6E08DC469837A838B839C832D833E8315
:100D30004F835887E9E0EE2EF12CEC0EFD1ECE011C
:100D40000196B701A2D38E010F5E1F4FCE0105960B
:100D5000B8019BD38A8991E089278A8BC701B801A2
:100D6000AE01475E5F4F8EDEBFD2A096E6E083C441
:100D7000A0E2B0E0EDEBF6E062C469837A838B8396
:100D80009C832D833E834F835887F9E0EF2EF12C0F
:100D9000EC0EFD1ECE010196B70177D38E010F5EDA
:100DA0001F4FCE010596B80170D3C701B801AE013F
:100DB000475E5F4F67DE98D2A096E6E05CC4A0E293
:100DC000B0E0E4EEF6E02FC469837A838B839C83E2
:100DD0002D833E834F835887CE010196BE01675F06
:100DE0007F4F53D3CE010596BE016F5E7F4F4DD32B
:100DF0009985923088F089898230C8F0943019F44E
:100E0000823051F404C0843029F4923081F483E6B6
:100E100090E0C6C0923049F480E02A859A8929136F
:100E200081E08A87CE010996BBC0823049F480E018
:100E30002A859A89291381E08A8BCE014196B0C018
:100E40006D847E848F849888AD88BE88CF88D88C46
:100E500060E070E080E090E0A0E0B0E0EE24FF24ED
:100E6000870120E030E040E050E0F301E170F070F5
:100E70003097C9F02A0D3B1D4C1D5D1D8E0D9F1D29
:100E8000A01FB11F2224332421012A153B054C0544
:100E90005D0528F4E1E02E2E312C412C512C820DE1
:100EA000931DA41DB51DEE0CFF1C001F111FD7FEC6
:100EB00009C0E1E02E2E312C412C512CE228F328E0
:100EC000042915296F5F7F4F6032710549F0AA0C24
:100ED000BB1CCC1CDD1C9694879477946794C5CF7B
:100EE0006B897C89EB85FC856E0F7F1F6E5F7F4F62
:100EF0007C8F6B8F1A8E7A856A89761711F061E084
:100F00006A8F6B8D7C8D10C0FC01E170F0703097A2
:100F100029F056954795379527955068B695A7952A
:100F2000979587956F5F7F4FB7FDEECF0CC0880F09
:100F3000991FAA1FBB1F57FD8160220F331F441F3B
:100F4000551F615070408030E0E09E07E0E0AE0742
:100F5000E0E4BE0760F36B8F7C8F6FE7E62EF12C29
:100F6000012D112DE822F9220A231B2360E4E61645
:100F7000F1040105110561F487FD0AC02115310551
:100F80004105510529F0805C9F4FAF4FBF4F8078DE
:100F90008D8F9E8FAF8FB8A383E0898FCE01499646
:100FA000A3D1A096E2E15BC3A8E1B0E0E9EDF7E0F0
:100FB00046C369837A838B839C832D833E834F83CF
:100FC000588789E0E82EF12CEC0EFD1ECE0101962B
:100FD000B7015BD28E010F5E1F4FCE010596B8019F
:100FE00054D28985823038F08989823020F0C70157
:100FF000B801BAD201C08FEF6896E6E03CC3A8E121
:10100000B0E0E4E0F8E01BC369837A838B839C83C0
:101010002D833E834F83588789E0E82EF12CEC0E18
:10102000FD1ECE010196B70130D28E010F5E1F4F1B
:10103000CE010596B80129D28985823038F0898998
:10104000823020F0C701B8018FD201C08FEF6896BF
:10105000E6E011C3A8E1B0E0EFE2F8E0F0C2698396
:101060007A838B839C832D833E834F83588789E0CB
:10107000E82EF12CEC0EFD1ECE010196B70105D233
:101080008E010F5E1F4FCE010596B801FED18985F6
:10109000823038F08989823020F0C701B80164D2EB
:1010A00001C081E06896E6E0E6C2ACE0B0E0EAE5C7
:1010B000F8E0C9C269837A838B839C83CE01019651
:1010C000BE016B5F7F4FE1D18D81823061F1823053
:1010D00050F1843021F48E81882351F12EC02F816C
:1010E000388537FD20C06E812F3131051CF0662315
:1010F000F9F023C08EE190E0821B930B29853A859D
:101100004B855C8504C056954795379527958A95FC
:10111000D2F76623B1F050954095309521953F4F19
:101120004F4F5F4F0EC020E030E040E050E009C07C
:101130002FEF3FEF4FEF5FE704C020E030E040E0EB
:1011400050E8B901CA012C96E2E099C2A8E0B0E0EB
:10115000EBEAF8E072C27B018C011A82611571051D
:101160008105910519F482E089835FC083E089835A
:101170008EE1C82ED12CDC82CB82ED82FE820F83E1
:101180001887C801B70157D09C012150304037FF64
:1011900039C0EE27FF27E21BF30B40E050E060E090
:1011A00070E081E090E0A0E0B0E00E2E04C0880F77
:1011B000991FAA1FBB1F0A94D2F70197A109B10971
:1011C0008E219F21A023B1230097A105B10521F015
:1011D00041E050E060E070E004C016950795F79498
:1011E000E794EA95D2F7E42AF52A062B172BED822D
:1011F000FE820F8318878EE190E0821B930B9C8305
:101200008B8313C02115310581F0022E04C0EE0C32
:10121000FF1C001F111F0A94D2F7ED82FE820F837C
:101220001887C21AD30ADC82CB82CE0101965CD029
:101230002896E8E01EC2AF92BF92CF92DF92EF9263
:10124000FF920F931F937B018C0180E0E81680E0F2
:10125000F80681E0080780E0180788F48FEFE816A9
:10126000F1040105110531F028F088E090E0A0E0DC
:10127000B0E017C080E090E0A0E0B0E012C080E0F5
:10128000E81680E0F80680E0080781E0180728F0FB
:1012900088E190E0A0E0B0E004C080E190E0A0E050
:1012A000B0E020E230E040E050E0281B390B4A0B70
:1012B0005B0B5701680104C0D694C794B794A794F8
:1012C0008A95D2F7F501E559FF4F8081281B310936
:1012D00041095109C9011F910F91FF90EF90DF90D3
:1012E000CF90BF90AF900895CF92DF92EF92FF9290
:1012F0000F931F93FC012481358146815781018121
:101300008081823020F440618FEF90E0A4C084306F
:1013100009F49BC0823019F480E090E098C0211558
:1013200031054105510519F480E090E094C08281B7
:1013300093816FEF823896070CF059C062E87FEF17
:10134000681B790B6A3171052CF020E030E040E039
:1013500050E02AC069017A01062E04C0F694E79491
:10136000D794C7940A94D2F781E090E0A0E0B0E06F
:1013700004C0880F991FAA1FBB1F6A95D2F7019757
:10138000A109B10982239323A423B5230097A105C2
:10139000B10521F081E090E0A0E0B0E09C01AD015A
:1013A0002C293D294E295F29DA01C9018F779070D8
:1013B000A070B07080349105A105B10539F427FF04
:1013C00009C0205C3F4F4F4F5F4F04C0215C3F4F2F
:1013D0004F4F5F4F80E090E0203060E0360760E0E4
:1013E000460760E4560748F181E090E026C0803867
:1013F00091055CF581589F4F7FE7C72ED12CE12CDA
:10140000F12CC222D322E422F52260E4C616D104D4
:10141000E104F10439F427FF09C0205C3F4F4F4F2E
:101420005F4F04C0215C3F4F4F4F5F4F57FF05C0D8
:101430005695479537952795019697E05695479588
:10144000379527959A95D1F706C08FEF90E020E069
:1014500030E040E050E0782F779577277795142F8C
:101460001F77602F6795662767958695F12FF72B75
:10147000E82FE62B622F732F8F2F9E2F1F910F9136
:10148000FF90EF90DF90CF900895FC01DB01208169
:1014900031818281482F4F7750E0982F991F9927EB
:1014A000991F6381862F880F892B90E0661F66271E
:1014B000661F11966C931197009769F521153105F8
:1014C0004105510511F482E02FC082E89FEF139689
:1014D0009C938E93129767E0220F331F441F551F72
:1014E0006A95D1F783E08C930DC0220F331F441F00
:1014F000551F12968D919C911397019713969C936B
:101500008E931297203080E0380780E0480780E40F
:10151000580758F322C08F3F910579F42115310502
:101520004105510519F484E08C93089544FF03C0EC
:1015300081E08C9312C01C9210C08F57904013967C
:101540009C938E93129783E08C9387E0220F331F36
:10155000441F551F8A95D1F7506414962D933D93DF
:101560004D935C9317970895EF92FF920F931F93FB
:10157000FC01DB018081823008F447C09C919230ED
:1015800008F443C0843051F481819430A1F5119660
:101590002C91119730E0281B31093FC0943021F085
:1015A000823031F49230B9F111968C9111972BC0A1
:1015B0008181923001F111969C9111978917D9F48C
:1015C0004281538112962D913C9113972417350730
:1015D00094F042175307BCF0E480F5800681178130
:1015E00014962D913D914D915C9117972E153F05C5
:1015F0004007510718F4882341F00AC0E216F306A9
:101600000407150740F4882319F021E030E005C0F5
:101610002FEF3FEF02C020E030E0C9011F910F9192
:10162000FF90EF9008952F923F924F925F926F92AA
:101630007F928F929F92AF92BF92CF92DF92EF9262
:10164000FF920F931F93CF93DF93CDB7DEB7CA1BE3
:10165000DB0B0FB6F894DEBF0FBECDBF09942A880E
:10166000398848885F846E847D848C849B84AA84B6
:10167000B984C884DF80EE80FD800C811B81AA8143
:10168000B981CE0FD11D0FB6F894DEBF0FBECDBF0E
:10169000ED010895DC01CB01FC01E199FECF06C00C
:1016A000FFBBEEBBE09A31960DB20D924150504017
:0816B000B8F70895F894FFCF8C
:1016B8005AFF0100000000000000000001020203C0
:1016C80003030304040404040404040505050505D0
:1016D80005050505050505050505050606060606AD
:1016E8000606060606060606060606060606060692
:1016F800060606060606060606060607070707077D
:101708000707070707070707070707070707070761
:101718000707070707070707070707070707070751
:101728000707070707070707070707070707070741
:10173800070707070707070707070708080808082C
:101748000808080808080808080808080808080811
:101758000808080808080808080808080808080801
:1017680008080808080808080808080808080808F1
:1017780008080808080808080808080808080808E1
:1017880008080808080808080808080808080808D1
:1017980008080808080808080808080808080808C1
:1017A80008080808080808080808080808080808B1
:0C17B800080808080808080808080800CD
:00000001FF
