:1000000012C02CC02BC02AC029C028C027C026C0BF
:1000100025C024C023C022C021C020C01FC01EC0D4
:100020001DC01CC01BC011241FBECFE5D4E0DEBF25
:10003000CDBF10E0A0E6B0E0E2E8F0E002C005903D
:100040000D92A036B107D9F710E0A0E6B0E001C0EC
:100050001D92A036B107E1F702D011C0D1CF8AB10D
:1000600088618AB980B5866880BD8FEB89B910BC7C
:100070005F9BFECF8CB15D9BFECF8CB9F9CFF8941E
:02008000FFCFB0
:00000001FF
